{
  "contractName": "ApprovalRequest",
  "abi": [
    {
      "anonymous": false,
      "inputs": [
        {
          "indexed": true,
          "internalType": "address",
          "name": "previousOwner",
          "type": "address"
        },
        {
          "indexed": true,
          "internalType": "address",
          "name": "newOwner",
          "type": "address"
        }
      ],
      "name": "OwnershipTransferred",
      "type": "event"
    },
    {
      "inputs": [
        {
          "internalType": "uint256",
          "name": "",
          "type": "uint256"
        }
      ],
      "name": "data",
      "outputs": [
        {
          "internalType": "uint256",
          "name": "id",
          "type": "uint256"
        },
        {
          "internalType": "string",
          "name": "approverEmail",
          "type": "string"
        },
        {
          "internalType": "string",
          "name": "contents",
          "type": "string"
        },
        {
          "internalType": "uint256",
          "name": "approvalWindowMinutes",
          "type": "uint256"
        },
        {
          "internalType": "string",
          "name": "response",
          "type": "string"
        }
      ],
      "stateMutability": "view",
      "type": "function",
      "constant": true
    },
    {
      "inputs": [],
      "name": "owner",
      "outputs": [
        {
          "internalType": "address",
          "name": "",
          "type": "address"
        }
      ],
      "stateMutability": "view",
      "type": "function",
      "constant": true
    },
    {
      "inputs": [],
      "name": "renounceOwnership",
      "outputs": [],
      "stateMutability": "nonpayable",
      "type": "function"
    },
    {
      "inputs": [
        {
          "internalType": "address",
          "name": "newOwner",
          "type": "address"
        }
      ],
      "name": "transferOwnership",
      "outputs": [],
      "stateMutability": "nonpayable",
      "type": "function"
    },
    {
      "inputs": [
        {
          "internalType": "uint256",
          "name": "_index",
          "type": "uint256"
        }
      ],
      "name": "get",
      "outputs": [
        {
          "components": [
            {
              "internalType": "uint256",
              "name": "id",
              "type": "uint256"
            },
            {
              "internalType": "string",
              "name": "approverEmail",
              "type": "string"
            },
            {
              "internalType": "string",
              "name": "contents",
              "type": "string"
            },
            {
              "internalType": "uint256",
              "name": "approvalWindowMinutes",
              "type": "uint256"
            },
            {
              "internalType": "string",
              "name": "response",
              "type": "string"
            }
          ],
          "internalType": "struct ApprovalRequestData",
          "name": "",
          "type": "tuple"
        }
      ],
      "stateMutability": "view",
      "type": "function",
      "constant": true
    },
    {
      "inputs": [
        {
          "internalType": "string",
          "name": "_approverEmail",
          "type": "string"
        },
        {
          "internalType": "string",
          "name": "_contents",
          "type": "string"
        },
        {
          "internalType": "uint256",
          "name": "_approvalWindowMinutes",
          "type": "uint256"
        }
      ],
      "name": "create",
      "outputs": [
        {
          "internalType": "uint256",
          "name": "",
          "type": "uint256"
        },
        {
          "internalType": "uint256",
          "name": "",
          "type": "uint256"
        }
      ],
      "stateMutability": "nonpayable",
      "type": "function"
    },
    {
      "inputs": [
        {
          "internalType": "uint256",
          "name": "_index",
          "type": "uint256"
        },
        {
          "internalType": "string",
          "name": "_response",
          "type": "string"
        }
      ],
      "name": "setResponse",
      "outputs": [],
      "stateMutability": "nonpayable",
      "type": "function"
    }
  ],
  "bytecode": "0x608060405234801561001057600080fd5b5061002d61002261003260201b60201c565b61003a60201b60201c565b6100fe565b600033905090565b60008060009054906101000a900473ffffffffffffffffffffffffffffffffffffffff169050816000806101000a81548173ffffffffffffffffffffffffffffffffffffffff021916908373ffffffffffffffffffffffffffffffffffffffff1602179055508173ffffffffffffffffffffffffffffffffffffffff168173ffffffffffffffffffffffffffffffffffffffff167f8be0079c531659141344cd1fd0a4f28419497f9722a3daafe3b4186f6b6457e060405160405180910390a35050565b6112968061010d6000396000f3fe608060405234801561001057600080fd5b506004361061007d5760003560e01c80639507d39a1161005b5780639507d39a146100db578063989cf6881461010b578063f0ba844014610127578063f2fde38b1461015b5761007d565b80633ca6d10014610082578063715018a6146100b35780638da5cb5b146100bd575b600080fd5b61009c60048036038101906100979190610bf4565b610177565b6040516100aa929190610c98565b60405180910390f35b6100bb6102f0565b005b6100c5610378565b6040516100d29190610d02565b60405180910390f35b6100f560048036038101906100f09190610d1d565b6103a1565b6040516101029190610e76565b60405180910390f35b61012560048036038101906101209190610e98565b6105a7565b005b610141600480360381019061013c9190610d1d565b610655565b604051610152959493929190610f42565b60405180910390f35b61017560048036038101906101709190610fd6565b610833565b005b6000806101826109f7565b60004290508082600001818152505088888080601f016020809104026020016040519081016040528093929190818152602001838380828437600081840152601f19601f82011690508083019250505050505050826020018190525086868080601f016020809104026020016040519081016040528093929190818152602001838380828437600081840152601f19601f820116905080830192505050505050508260400181905250848260600181815250506001829080600181540180825580915050600190039060005260206000209060050201600090919091909150600082015181600001556020820151816001019080519060200190610287929190610a26565b5060408201518160020190805190602001906102a4929190610a26565b506060820151816003015560808201518160040190805190602001906102cb929190610a26565b50505080600180805490506102e09190611032565b9350935050509550959350505050565b6102f861092b565b73ffffffffffffffffffffffffffffffffffffffff16610316610378565b73ffffffffffffffffffffffffffffffffffffffff161461036c576040517f08c379a0000000000000000000000000000000000000000000000000000000008152600401610363906110b2565b60405180910390fd5b6103766000610933565b565b60008060009054906101000a900473ffffffffffffffffffffffffffffffffffffffff16905090565b6103a96109f7565b600182815481106103bd576103bc6110d2565b5b90600052602060002090600502016040518060a0016040529081600082015481526020016001820180546103f090611130565b80601f016020809104026020016040519081016040528092919081815260200182805461041c90611130565b80156104695780601f1061043e57610100808354040283529160200191610469565b820191906000526020600020905b81548152906001019060200180831161044c57829003601f168201915b5050505050815260200160028201805461048290611130565b80601f01602080910402602001604051908101604052809291908181526020018280546104ae90611130565b80156104fb5780601f106104d0576101008083540402835291602001916104fb565b820191906000526020600020905b8154815290600101906020018083116104de57829003601f168201915b505050505081526020016003820154815260200160048201805461051e90611130565b80601f016020809104026020016040519081016040528092919081815260200182805461054a90611130565b80156105975780601f1061056c57610100808354040283529160200191610597565b820191906000526020600020905b81548152906001019060200180831161057a57829003601f168201915b5050505050815250509050919050565b6000600184815481106105bd576105bc6110d2565b5b906000526020600020906005020160040180546105d990611130565b90501461061b576040517f08c379a0000000000000000000000000000000000000000000000000000000008152600401610612906111ae565b60405180910390fd5b818160018581548110610631576106306110d2565b5b9060005260206000209060050201600401919061064f929190610aac565b50505050565b6001818154811061066557600080fd5b906000526020600020906005020160009150905080600001549080600101805461068e90611130565b80601f01602080910402602001604051908101604052809291908181526020018280546106ba90611130565b80156107075780601f106106dc57610100808354040283529160200191610707565b820191906000526020600020905b8154815290600101906020018083116106ea57829003601f168201915b50505050509080600201805461071c90611130565b80601f016020809104026020016040519081016040528092919081815260200182805461074890611130565b80156107955780601f1061076a57610100808354040283529160200191610795565b820191906000526020600020905b81548152906001019060200180831161077857829003601f168201915b5050505050908060030154908060040180546107b090611130565b80601f01602080910402602001604051908101604052809291908181526020018280546107dc90611130565b80156108295780601f106107fe57610100808354040283529160200191610829565b820191906000526020600020905b81548152906001019060200180831161080c57829003601f168201915b5050505050905085565b61083b61092b565b73ffffffffffffffffffffffffffffffffffffffff16610859610378565b73ffffffffffffffffffffffffffffffffffffffff16146108af576040517f08c379a00000000000000000000000000000000000000000000000000000000081526004016108a6906110b2565b60405180910390fd5b600073ffffffffffffffffffffffffffffffffffffffff168173ffffffffffffffffffffffffffffffffffffffff16141561091f576040517f08c379a000000000000000000000000000000000000000000000000000000000815260040161091690611240565b60405180910390fd5b61092881610933565b50565b600033905090565b60008060009054906101000a900473ffffffffffffffffffffffffffffffffffffffff169050816000806101000a81548173ffffffffffffffffffffffffffffffffffffffff021916908373ffffffffffffffffffffffffffffffffffffffff1602179055508173ffffffffffffffffffffffffffffffffffffffff168173ffffffffffffffffffffffffffffffffffffffff167f8be0079c531659141344cd1fd0a4f28419497f9722a3daafe3b4186f6b6457e060405160405180910390a35050565b6040518060a0016040528060008152602001606081526020016060815260200160008152602001606081525090565b828054610a3290611130565b90600052602060002090601f016020900481019282610a545760008555610a9b565b82601f10610a6d57805160ff1916838001178555610a9b565b82800160010185558215610a9b579182015b82811115610a9a578251825591602001919060010190610a7f565b5b509050610aa89190610b32565b5090565b828054610ab890611130565b90600052602060002090601f016020900481019282610ada5760008555610b21565b82601f10610af357803560ff1916838001178555610b21565b82800160010185558215610b21579182015b82811115610b20578235825591602001919060010190610b05565b5b509050610b2e9190610b32565b5090565b5b80821115610b4b576000816000905550600101610b33565b5090565b600080fd5b600080fd5b600080fd5b600080fd5b600080fd5b60008083601f840112610b7e57610b7d610b59565b5b8235905067ffffffffffffffff811115610b9b57610b9a610b5e565b5b602083019150836001820283011115610bb757610bb6610b63565b5b9250929050565b6000819050919050565b610bd181610bbe565b8114610bdc57600080fd5b50565b600081359050610bee81610bc8565b92915050565b600080600080600060608688031215610c1057610c0f610b4f565b5b600086013567ffffffffffffffff811115610c2e57610c2d610b54565b5b610c3a88828901610b68565b9550955050602086013567ffffffffffffffff811115610c5d57610c5c610b54565b5b610c6988828901610b68565b93509350506040610c7c88828901610bdf565b9150509295509295909350565b610c9281610bbe565b82525050565b6000604082019050610cad6000830185610c89565b610cba6020830184610c89565b9392505050565b600073ffffffffffffffffffffffffffffffffffffffff82169050919050565b6000610cec82610cc1565b9050919050565b610cfc81610ce1565b82525050565b6000602082019050610d176000830184610cf3565b92915050565b600060208284031215610d3357610d32610b4f565b5b6000610d4184828501610bdf565b91505092915050565b610d5381610bbe565b82525050565b600081519050919050565b600082825260208201905092915050565b60005b83811015610d93578082015181840152602081019050610d78565b83811115610da2576000848401525b50505050565b6000601f19601f8301169050919050565b6000610dc482610d59565b610dce8185610d64565b9350610dde818560208601610d75565b610de781610da8565b840191505092915050565b600060a083016000830151610e0a6000860182610d4a565b5060208301518482036020860152610e228282610db9565b91505060408301518482036040860152610e3c8282610db9565b9150506060830151610e516060860182610d4a565b5060808301518482036080860152610e698282610db9565b9150508091505092915050565b60006020820190508181036000830152610e908184610df2565b905092915050565b600080600060408486031215610eb157610eb0610b4f565b5b6000610ebf86828701610bdf565b935050602084013567ffffffffffffffff811115610ee057610edf610b54565b5b610eec86828701610b68565b92509250509250925092565b600082825260208201905092915050565b6000610f1482610d59565b610f1e8185610ef8565b9350610f2e818560208601610d75565b610f3781610da8565b840191505092915050565b600060a082019050610f576000830188610c89565b8181036020830152610f698187610f09565b90508181036040830152610f7d8186610f09565b9050610f8c6060830185610c89565b8181036080830152610f9e8184610f09565b90509695505050505050565b610fb381610ce1565b8114610fbe57600080fd5b50565b600081359050610fd081610faa565b92915050565b600060208284031215610fec57610feb610b4f565b5b6000610ffa84828501610fc1565b91505092915050565b7f4e487b7100000000000000000000000000000000000000000000000000000000600052601160045260246000fd5b600061103d82610bbe565b915061104883610bbe565b92508282101561105b5761105a611003565b5b828203905092915050565b7f4f776e61626c653a2063616c6c6572206973206e6f7420746865206f776e6572600082015250565b600061109c602083610ef8565b91506110a782611066565b602082019050919050565b600060208201905081810360008301526110cb8161108f565b9050919050565b7f4e487b7100000000000000000000000000000000000000000000000000000000600052603260045260246000fd5b7f4e487b7100000000000000000000000000000000000000000000000000000000600052602260045260246000fd5b6000600282049050600182168061114857607f821691505b6020821081141561115c5761115b611101565b5b50919050565b7f526573706f6e736520697320616c726561647920736574000000000000000000600082015250565b6000611198601783610ef8565b91506111a382611162565b602082019050919050565b600060208201905081810360008301526111c78161118b565b9050919050565b7f4f776e61626c653a206e6577206f776e657220697320746865207a65726f206160008201527f6464726573730000000000000000000000000000000000000000000000000000602082015250565b600061122a602683610ef8565b9150611235826111ce565b604082019050919050565b600060208201905081810360008301526112598161121d565b905091905056fea26469706673582212203700d244f1a54149b59af37ed367a6cbbe7bd70bef93f422d6074f14902594c264736f6c634300080a0033",
  "immutableReferences": {},
  "source": "// SPDX-License-Identifier: MIT\npragma solidity 0.8.10;\n\n//import \"https://github.com/OpenZeppelin/openzeppelin-contracts/blob/master/contracts/access/Ownable.sol\";\nimport 'openzeppelin-solidity/contracts/access/Ownable.sol';\n\nstruct ApprovalRequestData {\n    uint id;\n    string approverEmail;\n    string contents;\n    uint approvalWindowMinutes;\n    string response;\n}\n\ncontract ApprovalRequest is Ownable {\n    ApprovalRequestData[] public data;\n\n    function get(uint _index) external view returns (ApprovalRequestData memory) {\n        return data[_index];\n    }\n\n    // Creates a new approval request, adds it to contract storage and returns the id\n    function create(string calldata _approverEmail, string calldata _contents, uint _approvalWindowMinutes) external returns (uint, uint) {\n        ApprovalRequestData memory _data;\n        uint _id = block.timestamp;\n        _data.id = _id;\n        _data.approverEmail = _approverEmail;\n        _data.contents = _contents;\n        _data.approvalWindowMinutes = _approvalWindowMinutes;\n        data.push(_data);\n        return (_id, data.length - 1);   // Return the timestamp (id) and position (index) in the array\n    }\n\n    // Sets the approval response for the given index\n    // If response is already set, return an error\n    function setResponse(uint _index, string calldata _response) external {\n        require(bytes(data[_index].response).length == 0, \"Response is already set\");\n        data[_index].response = _response;\n    }\n}\n",
  "sourcePath": "/Users/vbalasubramaniam/github/blockchain-developer-bootcamp-final-project/approval-request/contracts/ApprovalRequest.sol",
  "compiler": {
    "name": "solc",
    "version": "0.8.10+commit.fc410830.Emscripten.clang"
  },
  "schemaVersion": "3.4.4",
  "updatedAt": "2021-12-28T01:11:03.250Z",
  "networkType": "ethereum",
  "devdoc": {
    "kind": "dev",
    "methods": {
      "owner()": {
        "details": "Returns the address of the current owner."
      },
      "renounceOwnership()": {
        "details": "Leaves the contract without owner. It will not be possible to call `onlyOwner` functions anymore. Can only be called by the current owner. NOTE: Renouncing ownership will leave the contract without an owner, thereby removing any functionality that is only available to the owner."
      },
      "transferOwnership(address)": {
        "details": "Transfers ownership of the contract to a new account (`newOwner`). Can only be called by the current owner."
      }
    },
    "version": 1
  },
  "userdoc": {
    "kind": "user",
    "methods": {},
    "version": 1
  }
}